{
  "_format": "hh-sol-artifact-1",
  "contractName": "BoxV3",
  "sourceName": "contracts/BoxV3.sol",
  "abi": [
    {
      "inputs": [
        {
          "internalType": "address",
          "name": "target",
          "type": "address"
        }
      ],
      "name": "AddressEmptyCode",
      "type": "error"
    },
    {
      "inputs": [
        {
          "internalType": "address",
          "name": "implementation",
          "type": "address"
        }
      ],
      "name": "ERC1967InvalidImplementation",
      "type": "error"
    },
    {
      "inputs": [],
      "name": "ERC1967NonPayable",
      "type": "error"
    },
    {
      "inputs": [],
      "name": "FailedCall",
      "type": "error"
    },
    {
      "inputs": [],
      "name": "InvalidInitialization",
      "type": "error"
    },
    {
      "inputs": [],
      "name": "NotInitializing",
      "type": "error"
    },
    {
      "inputs": [
        {
          "internalType": "address",
          "name": "owner",
          "type": "address"
        }
      ],
      "name": "OwnableInvalidOwner",
      "type": "error"
    },
    {
      "inputs": [
        {
          "internalType": "address",
          "name": "account",
          "type": "address"
        }
      ],
      "name": "OwnableUnauthorizedAccount",
      "type": "error"
    },
    {
      "inputs": [],
      "name": "UUPSUnauthorizedCallContext",
      "type": "error"
    },
    {
      "inputs": [
        {
          "internalType": "bytes32",
          "name": "slot",
          "type": "bytes32"
        }
      ],
      "name": "UUPSUnsupportedProxiableUUID",
      "type": "error"
    },
    {
      "anonymous": false,
      "inputs": [
        {
          "indexed": false,
          "internalType": "uint64",
          "name": "version",
          "type": "uint64"
        }
      ],
      "name": "Initialized",
      "type": "event"
    },
    {
      "anonymous": false,
      "inputs": [
        {
          "indexed": true,
          "internalType": "address",
          "name": "previousOwner",
          "type": "address"
        },
        {
          "indexed": true,
          "internalType": "address",
          "name": "newOwner",
          "type": "address"
        }
      ],
      "name": "OwnershipTransferred",
      "type": "event"
    },
    {
      "anonymous": false,
      "inputs": [
        {
          "indexed": true,
          "internalType": "address",
          "name": "implementation",
          "type": "address"
        }
      ],
      "name": "Upgraded",
      "type": "event"
    },
    {
      "inputs": [],
      "name": "UPGRADE_INTERFACE_VERSION",
      "outputs": [
        {
          "internalType": "string",
          "name": "",
          "type": "string"
        }
      ],
      "stateMutability": "view",
      "type": "function"
    },
    {
      "inputs": [],
      "name": "boxVersion",
      "outputs": [
        {
          "internalType": "uint256",
          "name": "",
          "type": "uint256"
        }
      ],
      "stateMutability": "pure",
      "type": "function"
    },
    {
      "inputs": [
        {
          "internalType": "uint256",
          "name": "objects",
          "type": "uint256"
        },
        {
          "internalType": "address",
          "name": "multisig",
          "type": "address"
        }
      ],
      "name": "initialize",
      "outputs": [],
      "stateMutability": "nonpayable",
      "type": "function"
    },
    {
      "inputs": [],
      "name": "numberOfObjects",
      "outputs": [
        {
          "internalType": "uint256",
          "name": "",
          "type": "uint256"
        }
      ],
      "stateMutability": "view",
      "type": "function"
    },
    {
      "inputs": [],
      "name": "owner",
      "outputs": [
        {
          "internalType": "address",
          "name": "",
          "type": "address"
        }
      ],
      "stateMutability": "view",
      "type": "function"
    },
    {
      "inputs": [],
      "name": "proxiableUUID",
      "outputs": [
        {
          "internalType": "bytes32",
          "name": "",
          "type": "bytes32"
        }
      ],
      "stateMutability": "view",
      "type": "function"
    },
    {
      "inputs": [],
      "name": "removeObject",
      "outputs": [],
      "stateMutability": "nonpayable",
      "type": "function"
    },
    {
      "inputs": [],
      "name": "renounceOwnership",
      "outputs": [],
      "stateMutability": "nonpayable",
      "type": "function"
    },
    {
      "inputs": [
        {
          "internalType": "string",
          "name": "a",
          "type": "string"
        }
      ],
      "name": "teste",
      "outputs": [],
      "stateMutability": "nonpayable",
      "type": "function"
    },
    {
      "inputs": [
        {
          "internalType": "address",
          "name": "newOwner",
          "type": "address"
        }
      ],
      "name": "transferOwnership",
      "outputs": [],
      "stateMutability": "nonpayable",
      "type": "function"
    },
    {
      "inputs": [
        {
          "internalType": "address",
          "name": "newImplementation",
          "type": "address"
        },
        {
          "internalType": "bytes",
          "name": "data",
          "type": "bytes"
        }
      ],
      "name": "upgradeToAndCall",
      "outputs": [],
      "stateMutability": "payable",
      "type": "function"
    }
  ],
  "bytecode": "0x60a06040523073ffffffffffffffffffffffffffffffffffffffff1660809073ffffffffffffffffffffffffffffffffffffffff16815250348015604257600080fd5b5060805161181061006c600039600081816105bd0152818161061201526107cd01526118106000f3fe60806040526004361061009c5760003560e01c80638da5cb5b116100645780638da5cb5b14610141578063ad3cb1cc1461016c578063b56e520f14610197578063c4df490e146101c0578063da35a26f146101eb578063f2fde38b146102145761009c565b80632102ffaa146100a15780634f1ef286146100b857806352d1902d146100d4578063658504d1146100ff578063715018a61461012a575b600080fd5b3480156100ad57600080fd5b506100b661023d565b005b6100d260048036038101906100cd9190610ffa565b61029d565b005b3480156100e057600080fd5b506100e96102bc565b6040516100f6919061106f565b60405180910390f35b34801561010b57600080fd5b506101146102ef565b60405161012191906110a3565b60405180910390f35b34801561013657600080fd5b5061013f6102f5565b005b34801561014d57600080fd5b50610156610309565b60405161016391906110cd565b60405180910390f35b34801561017857600080fd5b50610181610341565b60405161018e9190611167565b60405180910390f35b3480156101a357600080fd5b506101be60048036038101906101b9919061122a565b61037a565b005b3480156101cc57600080fd5b506101d561038d565b6040516101e291906110a3565b60405180910390f35b3480156101f757600080fd5b50610212600480360381019061020d919061129f565b610396565b005b34801561022057600080fd5b5061023b600480360381019061023691906112df565b610535565b005b600160005411610282576040517f08c379a000000000000000000000000000000000000000000000000000000000815260040161027990611358565b60405180910390fd5b600160008082825461029491906113a7565b92505081905550565b6102a56105bb565b6102ae826106a1565b6102b882826106ac565b5050565b60006102c66107cb565b7f360894a13ba1a3210667c828492db98dca3e2076cc3735a920a3ca505d382bbc60001b905090565b60005481565b6102fd610852565b61030760006108d9565b565b6000806103146109b0565b90508060000160009054906101000a900473ffffffffffffffffffffffffffffffffffffffff1691505090565b6040518060400160405280600581526020017f352e302e3000000000000000000000000000000000000000000000000000000081525081565b806001908161038991906115e7565b5050565b60006002905090565b60006103a06109d8565b905060008160000160089054906101000a900460ff1615905060008260000160009054906101000a900467ffffffffffffffff1690506000808267ffffffffffffffff161480156103ee5750825b9050600060018367ffffffffffffffff16148015610423575060003073ffffffffffffffffffffffffffffffffffffffff163b145b905081158015610431575080155b15610468576040517ff92ee8a900000000000000000000000000000000000000000000000000000000815260040160405180910390fd5b60018560000160006101000a81548167ffffffffffffffff021916908367ffffffffffffffff16021790555083156104b85760018560000160086101000a81548160ff0219169083151502179055505b6104c0610a00565b6104c986610a0a565b86600081905550831561052c5760008560000160086101000a81548160ff0219169083151502179055507fc7f505b2f371ae2175ee4913f4499e1f2633a7b5936321eed1cdaeb6115181d260016040516105239190611708565b60405180910390a15b50505050505050565b61053d610852565b600073ffffffffffffffffffffffffffffffffffffffff168173ffffffffffffffffffffffffffffffffffffffff16036105af5760006040517f1e4fbdf70000000000000000000000000000000000000000000000000000000081526004016105a691906110cd565b60405180910390fd5b6105b8816108d9565b50565b7f000000000000000000000000000000000000000000000000000000000000000073ffffffffffffffffffffffffffffffffffffffff163073ffffffffffffffffffffffffffffffffffffffff16148061066857507f000000000000000000000000000000000000000000000000000000000000000073ffffffffffffffffffffffffffffffffffffffff1661064f610a1e565b73ffffffffffffffffffffffffffffffffffffffff1614155b1561069f576040517fe07c8dba00000000000000000000000000000000000000000000000000000000815260040160405180910390fd5b565b6106a9610852565b50565b8173ffffffffffffffffffffffffffffffffffffffff166352d1902d6040518163ffffffff1660e01b8152600401602060405180830381865afa92505050801561071457506040513d601f19601f82011682018060405250810190610711919061174f565b60015b61075557816040517f4c9c8ce300000000000000000000000000000000000000000000000000000000815260040161074c91906110cd565b60405180910390fd5b7f360894a13ba1a3210667c828492db98dca3e2076cc3735a920a3ca505d382bbc60001b81146107bc57806040517faa1d49a40000000000000000000000000000000000000000000000000000000081526004016107b3919061106f565b60405180910390fd5b6107c68383610a75565b505050565b7f000000000000000000000000000000000000000000000000000000000000000073ffffffffffffffffffffffffffffffffffffffff163073ffffffffffffffffffffffffffffffffffffffff1614610850576040517fe07c8dba00000000000000000000000000000000000000000000000000000000815260040160405180910390fd5b565b61085a610ae8565b73ffffffffffffffffffffffffffffffffffffffff16610878610309565b73ffffffffffffffffffffffffffffffffffffffff16146108d75761089b610ae8565b6040517f118cdaa70000000000000000000000000000000000000000000000000000000081526004016108ce91906110cd565b60405180910390fd5b565b60006108e36109b0565b905060008160000160009054906101000a900473ffffffffffffffffffffffffffffffffffffffff169050828260000160006101000a81548173ffffffffffffffffffffffffffffffffffffffff021916908373ffffffffffffffffffffffffffffffffffffffff1602179055508273ffffffffffffffffffffffffffffffffffffffff168173ffffffffffffffffffffffffffffffffffffffff167f8be0079c531659141344cd1fd0a4f28419497f9722a3daafe3b4186f6b6457e060405160405180910390a3505050565b60007f9016d09d72d40fdae2fd8ceac6b6234c7706214fd39c1cd1e609a0528c199300905090565b60007ff0c57e16840df040f15088dc2f81fe391c3923bec73e23a9662efc9c229c6a00905090565b610a08610af0565b565b610a12610af0565b610a1b81610b30565b50565b6000610a4c7f360894a13ba1a3210667c828492db98dca3e2076cc3735a920a3ca505d382bbc60001b610bb6565b60000160009054906101000a900473ffffffffffffffffffffffffffffffffffffffff16905090565b610a7e82610bc0565b8173ffffffffffffffffffffffffffffffffffffffff167fbc7cd75a20ee27fd9adebab32041f755214dbc6bffa90cc0225b39da2e5c2d3b60405160405180910390a2600081511115610adb57610ad58282610c8d565b50610ae4565b610ae3610d11565b5b5050565b600033905090565b610af8610d4e565b610b2e576040517fd7e6bcf800000000000000000000000000000000000000000000000000000000815260040160405180910390fd5b565b610b38610af0565b600073ffffffffffffffffffffffffffffffffffffffff168173ffffffffffffffffffffffffffffffffffffffff1603610baa5760006040517f1e4fbdf7000000000000000000000000000000000000000000000000000000008152600401610ba191906110cd565b60405180910390fd5b610bb3816108d9565b50565b6000819050919050565b60008173ffffffffffffffffffffffffffffffffffffffff163b03610c1c57806040517f4c9c8ce3000000000000000000000000000000000000000000000000000000008152600401610c1391906110cd565b60405180910390fd5b80610c497f360894a13ba1a3210667c828492db98dca3e2076cc3735a920a3ca505d382bbc60001b610bb6565b60000160006101000a81548173ffffffffffffffffffffffffffffffffffffffff021916908373ffffffffffffffffffffffffffffffffffffffff16021790555050565b60606000808473ffffffffffffffffffffffffffffffffffffffff1684604051610cb791906117c3565b600060405180830381855af49150503d8060008114610cf2576040519150601f19603f3d011682016040523d82523d6000602084013e610cf7565b606091505b5091509150610d07858383610d6e565b9250505092915050565b6000341115610d4c576040517fb398979f00000000000000000000000000000000000000000000000000000000815260040160405180910390fd5b565b6000610d586109d8565b60000160089054906101000a900460ff16905090565b606082610d8357610d7e82610dfd565b610df5565b60008251148015610dab575060008473ffffffffffffffffffffffffffffffffffffffff163b145b15610ded57836040517f9996b315000000000000000000000000000000000000000000000000000000008152600401610de491906110cd565b60405180910390fd5b819050610df6565b5b9392505050565b600081511115610e105780518082602001fd5b6040517fd6bda27500000000000000000000000000000000000000000000000000000000815260040160405180910390fd5b6000604051905090565b600080fd5b600080fd5b600073ffffffffffffffffffffffffffffffffffffffff82169050919050565b6000610e8182610e56565b9050919050565b610e9181610e76565b8114610e9c57600080fd5b50565b600081359050610eae81610e88565b92915050565b600080fd5b600080fd5b6000601f19601f8301169050919050565b7f4e487b7100000000000000000000000000000000000000000000000000000000600052604160045260246000fd5b610f0782610ebe565b810181811067ffffffffffffffff82111715610f2657610f25610ecf565b5b80604052505050565b6000610f39610e42565b9050610f458282610efe565b919050565b600067ffffffffffffffff821115610f6557610f64610ecf565b5b610f6e82610ebe565b9050602081019050919050565b82818337600083830152505050565b6000610f9d610f9884610f4a565b610f2f565b905082815260208101848484011115610fb957610fb8610eb9565b5b610fc4848285610f7b565b509392505050565b600082601f830112610fe157610fe0610eb4565b5b8135610ff1848260208601610f8a565b91505092915050565b6000806040838503121561101157611010610e4c565b5b600061101f85828601610e9f565b925050602083013567ffffffffffffffff8111156110405761103f610e51565b5b61104c85828601610fcc565b9150509250929050565b6000819050919050565b61106981611056565b82525050565b60006020820190506110846000830184611060565b92915050565b6000819050919050565b61109d8161108a565b82525050565b60006020820190506110b86000830184611094565b92915050565b6110c781610e76565b82525050565b60006020820190506110e260008301846110be565b92915050565b600081519050919050565b600082825260208201905092915050565b60005b83811015611122578082015181840152602081019050611107565b60008484015250505050565b6000611139826110e8565b61114381856110f3565b9350611153818560208601611104565b61115c81610ebe565b840191505092915050565b60006020820190508181036000830152611181818461112e565b905092915050565b600067ffffffffffffffff8211156111a4576111a3610ecf565b5b6111ad82610ebe565b9050602081019050919050565b60006111cd6111c884611189565b610f2f565b9050828152602081018484840111156111e9576111e8610eb9565b5b6111f4848285610f7b565b509392505050565b600082601f83011261121157611210610eb4565b5b81356112218482602086016111ba565b91505092915050565b6000602082840312156112405761123f610e4c565b5b600082013567ffffffffffffffff81111561125e5761125d610e51565b5b61126a848285016111fc565b91505092915050565b61127c8161108a565b811461128757600080fd5b50565b60008135905061129981611273565b92915050565b600080604083850312156112b6576112b5610e4c565b5b60006112c48582860161128a565b92505060206112d585828601610e9f565b9150509250929050565b6000602082840312156112f5576112f4610e4c565b5b600061130384828501610e9f565b91505092915050565b7f4e6f7468696e6720696e73696465000000000000000000000000000000000000600082015250565b6000611342600e836110f3565b915061134d8261130c565b602082019050919050565b6000602082019050818103600083015261137181611335565b9050919050565b7f4e487b7100000000000000000000000000000000000000000000000000000000600052601160045260246000fd5b60006113b28261108a565b91506113bd8361108a565b92508282039050818111156113d5576113d4611378565b5b92915050565b7f4e487b7100000000000000000000000000000000000000000000000000000000600052602260045260246000fd5b6000600282049050600182168061142257607f821691505b602082108103611435576114346113db565b5b50919050565b60008190508160005260206000209050919050565b60006020601f8301049050919050565b600082821b905092915050565b60006008830261149d7fffffffffffffffffffffffffffffffffffffffffffffffffffffffffffffffff82611460565b6114a78683611460565b95508019841693508086168417925050509392505050565b6000819050919050565b60006114e46114df6114da8461108a565b6114bf565b61108a565b9050919050565b6000819050919050565b6114fe836114c9565b61151261150a826114eb565b84845461146d565b825550505050565b600090565b61152761151a565b6115328184846114f5565b505050565b5b818110156115565761154b60008261151f565b600181019050611538565b5050565b601f82111561159b5761156c8161143b565b61157584611450565b81016020851015611584578190505b61159861159085611450565b830182611537565b50505b505050565b600082821c905092915050565b60006115be600019846008026115a0565b1980831691505092915050565b60006115d783836115ad565b9150826002028217905092915050565b6115f0826110e8565b67ffffffffffffffff81111561160957611608610ecf565b5b611613825461140a565b61161e82828561155a565b600060209050601f831160018114611651576000841561163f578287015190505b61164985826115cb565b8655506116b1565b601f19841661165f8661143b565b60005b8281101561168757848901518255600182019150602085019450602081019050611662565b868310156116a457848901516116a0601f8916826115ad565b8355505b6001600288020188555050505b505050505050565b6000819050919050565b600067ffffffffffffffff82169050919050565b60006116f26116ed6116e8846116b9565b6114bf565b6116c3565b9050919050565b611702816116d7565b82525050565b600060208201905061171d60008301846116f9565b92915050565b61172c81611056565b811461173757600080fd5b50565b60008151905061174981611723565b92915050565b60006020828403121561176557611764610e4c565b5b60006117738482850161173a565b91505092915050565b600081519050919050565b600081905092915050565b600061179d8261177c565b6117a78185611787565b93506117b7818560208601611104565b80840191505092915050565b60006117cf8284611792565b91508190509291505056fea264697066735822122018ab374a8ffde052fd6a29ee6a09f4180492d6461945c7d9023f06f7b04683d764736f6c634300081c0033",
  "linkReferences": {},
  "deployedLinkReferences": {}
}