{
  "_format": "hh-sol-artifact-1",
  "contractName": "UpgradableBox",
  "sourceName": "contracts/upgradable-box.sol",
  "abi": [
    {
      "inputs": [],
      "name": "InvalidInitialization",
      "type": "error"
    },
    {
      "inputs": [],
      "name": "NotInitializing",
      "type": "error"
    },
    {
      "anonymous": false,
      "inputs": [
        {
          "indexed": false,
          "internalType": "uint64",
          "name": "version",
          "type": "uint64"
        }
      ],
      "name": "Initialized",
      "type": "event"
    },
    {
      "inputs": [
        {
          "internalType": "uint256",
          "name": "_x",
          "type": "uint256"
        }
      ],
      "name": "initialize",
      "outputs": [],
      "stateMutability": "nonpayable",
      "type": "function"
    },
    {
      "inputs": [],
      "name": "x",
      "outputs": [
        {
          "internalType": "uint256",
          "name": "",
          "type": "uint256"
        }
      ],
      "stateMutability": "view",
      "type": "function"
    }
  ],
  "bytecode": "0x6080604052348015600f57600080fd5b5061036c8061001f6000396000f3fe608060405234801561001057600080fd5b50600436106100365760003560e01c80630c55699c1461003b578063fe4b84df14610059575b600080fd5b610043610075565b6040516100509190610249565b60405180910390f35b610073600480360381019061006e9190610295565b61007b565b005b60005481565b6000610085610208565b905060008160000160089054906101000a900460ff1615905060008260000160009054906101000a900467ffffffffffffffff1690506000808267ffffffffffffffff161480156100d35750825b9050600060018367ffffffffffffffff16148015610108575060003073ffffffffffffffffffffffffffffffffffffffff163b145b905081158015610116575080155b1561014d576040517ff92ee8a900000000000000000000000000000000000000000000000000000000815260040160405180910390fd5b60018560000160006101000a81548167ffffffffffffffff021916908367ffffffffffffffff160217905550831561019d5760018560000160086101000a81548160ff0219169083151502179055505b8560008190555083156102005760008560000160086101000a81548160ff0219169083151502179055507fc7f505b2f371ae2175ee4913f4499e1f2633a7b5936321eed1cdaeb6115181d260016040516101f7919061031b565b60405180910390a15b505050505050565b60007ff0c57e16840df040f15088dc2f81fe391c3923bec73e23a9662efc9c229c6a00905090565b6000819050919050565b61024381610230565b82525050565b600060208201905061025e600083018461023a565b92915050565b600080fd5b61027281610230565b811461027d57600080fd5b50565b60008135905061028f81610269565b92915050565b6000602082840312156102ab576102aa610264565b5b60006102b984828501610280565b91505092915050565b6000819050919050565b600067ffffffffffffffff82169050919050565b6000819050919050565b60006103056103006102fb846102c2565b6102e0565b6102cc565b9050919050565b610315816102ea565b82525050565b6000602082019050610330600083018461030c565b9291505056fea2646970667358221220a809487ebcd809f4c8459ad568651457118aa0d9dbaeba7dd0c4f7bd1d499b1b64736f6c634300081c0033",
  "linkReferences": {},
  "deployedLinkReferences": {}
}