{
  "_format": "hh-sol-artifact-1",
  "contractName": "Upgrade",
  "sourceName": "contracts/upgradable-box.sol",
  "abi": [
    {
      "inputs": [],
      "name": "InvalidInitialization",
      "type": "error"
    },
    {
      "inputs": [],
      "name": "NotInitializing",
      "type": "error"
    },
    {
      "anonymous": false,
      "inputs": [
        {
          "indexed": false,
          "internalType": "uint64",
          "name": "version",
          "type": "uint64"
        }
      ],
      "name": "Initialized",
      "type": "event"
    },
    {
      "inputs": [
        {
          "internalType": "uint256",
          "name": "_x",
          "type": "uint256"
        }
      ],
      "name": "initialize",
      "outputs": [],
      "stateMutability": "nonpayable",
      "type": "function"
    },
    {
      "inputs": [],
      "name": "x",
      "outputs": [
        {
          "internalType": "uint256",
          "name": "",
          "type": "uint256"
        }
      ],
      "stateMutability": "view",
      "type": "function"
    },
    {
      "inputs": [],
      "name": "y",
      "outputs": [
        {
          "internalType": "uint256",
          "name": "",
          "type": "uint256"
        }
      ],
      "stateMutability": "view",
      "type": "function"
    }
  ],
  "bytecode": "0x6080604052348015600f57600080fd5b5061052a8061001f6000396000f3fe608060405234801561001057600080fd5b50600436106100415760003560e01c80630c55699c14610046578063a56dfe4a14610064578063fe4b84df14610082575b600080fd5b61004e61009e565b60405161005b9190610407565b60405180910390f35b61006c6100a4565b6040516100799190610407565b60405180910390f35b61009c60048036038101906100979190610453565b6100aa565b005b60005481565b60025481565b60006100b4610239565b905060008160000160089054906101000a900460ff1615905060008260000160009054906101000a900467ffffffffffffffff1690506000808267ffffffffffffffff161480156101025750825b9050600060018367ffffffffffffffff16148015610137575060003073ffffffffffffffffffffffffffffffffffffffff163b145b905081158015610145575080155b1561017c576040517ff92ee8a900000000000000000000000000000000000000000000000000000000815260040160405180910390fd5b60018560000160006101000a81548167ffffffffffffffff021916908367ffffffffffffffff16021790555083156101cc5760018560000160086101000a81548160ff0219169083151502179055505b6101d586610261565b83156102315760008560000160086101000a81548160ff0219169083151502179055507fc7f505b2f371ae2175ee4913f4499e1f2633a7b5936321eed1cdaeb6115181d2600160405161022891906104d9565b60405180910390a15b505050505050565b60007ff0c57e16840df040f15088dc2f81fe391c3923bec73e23a9662efc9c229c6a00905090565b600061026b610239565b905060008160000160089054906101000a900460ff1615905060008260000160009054906101000a900467ffffffffffffffff1690506000808267ffffffffffffffff161480156102b95750825b9050600060018367ffffffffffffffff161480156102ee575060003073ffffffffffffffffffffffffffffffffffffffff163b145b9050811580156102fc575080155b15610333576040517ff92ee8a900000000000000000000000000000000000000000000000000000000815260040160405180910390fd5b60018560000160006101000a81548167ffffffffffffffff021916908367ffffffffffffffff16021790555083156103835760018560000160086101000a81548160ff0219169083151502179055505b8560008190555083156103e65760008560000160086101000a81548160ff0219169083151502179055507fc7f505b2f371ae2175ee4913f4499e1f2633a7b5936321eed1cdaeb6115181d260016040516103dd91906104d9565b60405180910390a15b505050505050565b6000819050919050565b610401816103ee565b82525050565b600060208201905061041c60008301846103f8565b92915050565b600080fd5b610430816103ee565b811461043b57600080fd5b50565b60008135905061044d81610427565b92915050565b60006020828403121561046957610468610422565b5b60006104778482850161043e565b91505092915050565b6000819050919050565b600067ffffffffffffffff82169050919050565b6000819050919050565b60006104c36104be6104b984610480565b61049e565b61048a565b9050919050565b6104d3816104a8565b82525050565b60006020820190506104ee60008301846104ca565b9291505056fea2646970667358221220c95b5045d078b4a4133ce678183f6f160cc234bb99bb9e280328b6ff0a49dcc264736f6c634300081c0033",
  "linkReferences": {},
  "deployedLinkReferences": {}
}